:020000040000fa
:080000000002040000000000f2
:020000040000fa
:04000800c80200002a
:020000040000fa
:04000c009c10000044
:020000040000fa
:04001000ae1000002e
:020000040000fa
:04001400a410000034
:020000040000fa
:04001800b61000001e
:020000040000fa
:04001c00c802000016
:020000040000fa
:04002000c802000012
:020000040000fa
:04002400c80200000e
:020000040000fa
:04002800c80200000a
:020000040000fa
:04002c00c802000006
:020000040000fa
:04003000c802000002
:020000040000fa
:04003400c8020000fe
:020000040000fa
:04003800c8020000fa
:020000040000fa
:04003c00c8020000f6
:020000040000fa
:04004000c8020000f2
:020000040000fa
:04004400c8020000ee
:020000040000fa
:04004800c8020000ea
:020000040000fa
:04004c00c8020000e6
:020000040000fa
:04005000c8020000e2
:020000040000fa
:04005400480b000055
:020000040000fa
:04005800f20a0000a8
:020000040000fa
:04005c00c8020000d6
:020000040000fa
:04006000c8020000d2
:020000040000fa
:04006400c8020000ce
:020000040000fa
:04006800c8020000ca
:020000040000fa
:04006c00c8020000c6
:020000040000fa
:04007000c8020000c2
:020000040000fa
:04007400c8020000be
:020000040000fa
:04007800c8020000ba
:020000040000fa
:04007c00c8020000b6
:020000040000fa
:04008000c8020000b2
:020000040000fa
:04008400c8020000ae
:020000040000fa
:04008800c8020000aa
:020000040000fa
:04008c00c8020000a6
:020000040000fa
:04009000c8020000a2
:020000040000fa
:04009400c80200009e
:020000040000fa
:04009800c80200009a
:020000040000fa
:04009c00c802000096
:020000040000fa
:0400a000c802000092
:020000040000fa
:0400a400c80200008e
:020000040000fa
:0400a800c80200008a
:020000040000fa
:0400ac00c802000086
:020000040000fa
:0400b000c802000082
:020000040000fa
:0400b400c80200007e
:020000040000fa
:0400b800c80200007a
:020000040000fa
:0400bc00c802000076
:020000040000fa
:0400c000c802000072
:020000040000fa
:0400c400c80200006e
:020000040000fa
:0400c800c80200006a
:020000040000fa
:0400cc00c802000066
:020000040000fa
:0400d000c802000062
:020000040000fa
:0400d400c80200005e
:020000040000fa
:0400d800c80200005a
:020000040000fa
:0400dc00c802000056
:020000040000fa
:0400e000c802000052
:020000040000fa
:0400e400c80200004e
:020000040000fa
:0400e800c80200004a
:020000040000fa
:0400ec00c802000046
:020000040000fa
:0400f000c802000042
:020000040000fa
:0400f400c80200003e
:020000040000fa
:0400f800c80200003a
:020000040000fa
:0400fc00c802000036
:020000040000fa
:04010000c802000031
:020000040000fa
:04010400c80200002d
:020000040000fa
:04010800c802000029
:020000040000fa
:04010c00c802000025
:020000040000fa
:04011000c802000021
:020000040000fa
:04011400c80200001d
:020000040000fa
:04011800c802000019
:020000040000fa
:04011c00c802000015
:020000040000fa
:04012000c802000011
:020000040000fa
:04012400c80200000d
:020000040000fa
:04012800c802000009
:020000040000fa
:04012c00920b000032
:020000040000fa
:04013000c802000001
:020000040000fa
:04013400c8020000fd
:020000040000fa
:04020800c802000028
:020000040000fa
:04020c00c802000024
:020000040000fa
:04021000c802000020
:020000040000fa
:04021400c80200001c
:020000040000fa
:04021800c802000018
:020000040000fa
:04021c00c802000014
:020000040000fa
:04022000c802000010
:020000040000fa
:04022400c80200000c
:020000040000fa
:04022800c802000008
:020000040000fa
:04022c00c802000004
:020000040000fa
:04023000c802000000
:020000040000fa
:04023400c8020000fc
:020000040000fa
:04023800c8020000f8
:020000040000fa
:04023c00c8020000f4
:020000040000fa
:04024000c8020000f0
:020000040000fa
:04024400c8020000ec
:020000040000fa
:04024800c8020000e8
:020000040000fa
:04024c00c8020000e4
:020000040000fa
:04025000c8020000e0
:020000040000fa
:04025400c8020000dc
:020000040000fa
:04025800c8020000d8
:020000040000fa
:04025c00c8020000d4
:020000040000fa
:04026000c8020000d0
:020000040000fa
:04026400c8020000cc
:020000040000fa
:04026800c8020000c8
:020000040000fa
:04026c00c8020000c4
:020000040000fa
:04027000c8020000c0
:020000040000fa
:04027400c8020000bc
:020000040000fa
:04027800c8020000b8
:020000040000fa
:04027c00c8020000b4
:020000040000fa
:04028000c8020000b0
:020000040000fa
:04028400c8020000ac
:020000040000fa
:04028800c8020000a8
:020000040000fa
:04028c00c8020000a4
:020000040000fa
:04029000c8020000a0
:020000040000fa
:04029400c80200009c
:020000040000fa
:04029800c802000098
:020000040000fa
:04029c00c802000094
:020000040000fa
:0402a000c802000090
:020000040000fa
:0402a400c80200008c
:020000040000fa
:0402a800c802000088
:020000040000fa
:0402ac00c802000084
:020000040000fa
:0402b000c802000080
:020000040000fa
:0402b400c80200007c
:020000040000fa
:0402b800c802000078
:020000040000fa
:0402bc00c802000074
:020000040000fa
:0402c000c802000070
:020000040000fa
:0402c400c80200006c
:020000040000fa
:0402c800c802000068
:020000040000fa
:0402cc00c802000064
:020000040000fa
:0402d000c802000060
:020000040000fa
:0402d400c80200005c
:020000040000fa
:0402d800c802000058
:020000040000fa
:0402dc00c802000054
:020000040000fa
:0402e000c802000050
:020000040000fa
:0402e400c80200004c
:020000040000fa
:0402e800c802000048
:020000040000fa
:0402ec00c802000044
:020000040000fa
:0402f000c802000040
:020000040000fa
:0402f400c80200003c
:020000040000fa
:0402f800c802000038
:020000040000fa
:0402fc00c802000034
:020000040000fa
:04030000c80200002f
:020000040000fa
:04030400c80200002b
:020000040000fa
:04030800c802000027
:020000040000fa
:04030c00c802000023
:020000040000fa
:04031000c80200001f
:020000040000fa
:04031400c80200001b
:020000040000fa
:04031800c802000017
:020000040000fa
:04031c00c802000013
:020000040000fa
:04032000c80200000f
:020000040000fa
:04032400c80200000b
:020000040000fa
:04032800c802000007
:020000040000fa
:04032c00c802000003
:020000040000fa
:04033000c8020000ff
:020000040000fa
:04033400c8020000fb
:020000040000fa
:100400000f8420000e7f22000e01880000000000f3
:10041000000020000000e000020032000001200087
:1004200020028800140007005b0007000000e000c5
:1004300003003a00e00e2100010020000200370016
:100440000000200001002000810f70000100320038
:1004500014000700000020000000e000020032004d
:100460000000020000000000bc05020000000000c7
:100470000040da000000fe004440a9000000200017
:100480000000e0000300320000002000a00188000e
:100490004440a800000006008a1f78008b1f7800e7
:1004a0000000060091018800800478000000eb0045
:1004b0001a003700e284440032a0b4009905ba0063
:1004c000e284440032a0b4009906ba00e2844400f9
:1004d00032a0b4000006eb00476fde00fd07b2005b
:1004e000636ce10003003a00ebff07000000eb0043
:1004f0000a003700606ce10004003a00005deb0088
:100500008b05e900fdff3e00040037006168e10053
:10051000010032000086eb000b00070019c7ba008b
:100520001905ba000e04e00003003a000a00e000da
:10053000e0ff3a0000000600fe07b2009e018800be
:100540008a047800f5ff3700395dba008b05e900b1
:100550000c003200295dba008b05e900080032006a
:100560000c00e00003003a00e284440032a0b40032
:10057000f5ff370019ddba008b05e900faff3a00f4
:100580008904e800e184440032a0b40000000600c1
:100590000040da000000fe000000050003f0a200a9
:1005a000889fbe008a9fbe008c1f7800c70007008e
:1005b000ce0033006450e1004f0032006420e100bf
:1005c0005200320003826c0007003b000905d00096
:1005d0000306d000820f54000c065d0002003900b3
:1005e00002003200890178000306780085825500f8
:1005f00004003d000003fd008103fd008502ea00c8
:100600008b854200840f720002003b0060001000e6
:10061000e08018006011b8000005eb007a28e100c6
:100620000a00390006007800c75ddd00f707b20058
:10063000878075002d003700828171000a017800e3
:10064000610560008180d1000080d3008502e9004f
:10065000f9ff3b00060440008784480002003b008d
:1006600060041400e0841c000988a3000700320025
:100670008a81710082817100610164008904d10066
:100680000884d3008b05e800170037000978a30021
:1006900013003a000b00e000130034008b05e90062
:1006a0000804440089844c000a4474000978a300bb
:1006b0000d003a000b00e000070034008b05e90054
:1006c0000804440089844c0001003a000b0020001b
:1006d0000978a300f7ff32000001eb0002003700a9
:1006e000828171000a017800520007000cf0a70017
:1006f00001f0a000860037006420e10002003a000b
:10070000838f6c00860033000801be000200be002b
:100710007f003700889fbe008a9fbe008c1f780034
:100720006a0007007100330003866c006450e1002a
:100730002e0032006420e100330032006150e100fd
:100740002f0032006120e100310032008585550024
:10075000eb07b00009002000080420000500370066
:100760000804440089844c000a0031000603430059
:1007700087834b000001530081815b00f8ff330049
:100780000203be000800a0000804440089844c0055
:10079000f6ff3900c639dd00830173000100320025
:1007a000130020008904d1000884d3000998a30015
:1007b000050032000800a7000300a0008904d10052
:1007c0000884d3008b05e8008904d1000884d30095
:1007d0000001eb000281d2001600070001f0a10029
:1007e0000cf0a70001f0a000490037006420e100f0
:1007f0004b0032000801be000200be00f7ff3700c8
:100800006120e100460032006000b800f3ff3700cd
:100810000000200001f82700f0ff3700140020003e
:1008200076003700f4ff2f00740037006011b80025
:100830008d00370081002000618055000b003d00d5
:100840000b00200061fe2f000100e1001d003400bc
:1008500082817100610164008904d1000884d300a1
:100860000000e800faff3a00710020006100640017
:1008700003007000020060000900320061044400bf
:10088000e0844c000988a500050032008b05e800d3
:100890006808e10002003a008904d1000884d3000e
:1008a000f20f20000258e10005003d00c75ddd00a9
:1008b000f907b20089807500080078000000060082
:1008c0000bf827008b007800000005000004be0034
:1008d000940007000003be000405be000200be0035
:1008e00090000700844f7500000006000200be0063
:1008f0006450e100050036006420e100020036008b
:100900000968a30001003a000800be000160a000d1
:100910004f0678004f05be004f04be0000000600e1
:10092000f0ff2f00f1ff2700f9ff3700889fbe007e
:100930008a9fbe008c1f7800e4ff0700ebff3300a6
:1009400003866c006450e100240032006420e10062
:10095000270032006150e100220032006120e100f6
:10096000210032008b854200eb07b1000134b80052
:10097000003ab8000804420089844a00013ab800ed
:100980000030b8008880400009014a0004003300ac
:100990000000400081804800020149008b05e90009
:1009a000c909dd008301700001003200130020003e
:1009b000c814de004814dd004709de001200b20052
:1009c000c808de00088470009aff070001f0a1004b
:1009d0000cf0a70001f0a000cdff37006120e1007e
:1009e000cfff32000801be000200be00f7ff370053
:1009f0006150e100fcff3a00c9ff3700889fbe004c
:100a00008a9fbe00841f7800b0ff07004f00780067
:100a100011003300f0ff2f00838f6c0006003b00b5
:100a2000040565000a00a7000800370009f0a600c9
:100a30001000200008003700820f5400838f5c00f4
:100a4000030039001000200001003e0000002000db
:100a500009f0a7000000ea004f05be004f04be00e9
:100a60000000e00000000600889fbe008a9fbe00d4
:100a700000827000040271000482710026003200be
:100a80000004be000200be006011b8006b09200027
:100a9000950220000182cf000a0039000541b10013
:100aa0000082cf00070039000541b1000982cf0064
:100ab000040039000541b1000882cf00010039006f
:100ac0000541b10005425200120032000a003b000d
:100ad00082817100610164008100d1000080d30037
:100ae0008984d3000884d3008b05e8000442e80021
:100af000f7ff3a00070037000804440089844c00df
:100b000000004800818048008b05e9000442e900ac
:100b1000f9ff3a0047ff07004f05be004f04be0033
:100b200000000600c70ade00f107b200f50fb200b0
:100b300008003200e1cf4200020032000170a00044
:100b400024000500810f7000010032000408050038
:100b500044000500810f700002003a0014000500f7
:100b60008502e9000000400081c04800fcff3b0016
:080b70000170a0002400050043
:020000040000fa
:100b78006a00fa00881f78007e050700d362a80083
:100b8800d222a900d422a900d242a900d442a800a6
:100b9800de02a900e002a900d882a900da82a90031
:100ba800d862a900da62a90010002000000f7800be
:100bb8000000eb001007980060002000100f98005c
:100bc8001e0890008000e900210f98000000e8004e
:100bd8000000e8000000d100800040000f0078000d
:100be800818747000000e8000000d10000004000b5
:100bf800300f98001e0890008000e900410f98000f
:100c08000000e8000000e8000000d100800040007b
:100c18000f007800818747000000e8000000d1003d
:100c280000004000500f9800a0902400e1342500f7
:100c3800501798006117980090442400511423001d
:100c480070179800011f9800a0902400e134250037
:100c5800101f9800211f980090442400512423005d
:100c6800301f9800411f9800a0902400e13425000f
:100c7800501f9800611f98009044240051342300ad
:100c8800701f980001279800a0902400e1342500e7
:100c980010279800212798009044240051442300ed
:100ca8003027980041279800a0902400e1342500bf
:100cb800502798006127980090442400515423003d
:100cc80070279800012f9800a0c024001154250017
:100cd800102f9800212f9800e0342400811422005e
:100ce800302f9800412f9800a0e02400f104220042
:100cf800502f9800612f980020542400512425007b
:100d0800702f980001379800a0c02400f114240027
:100d180010379800213798004054240041142300cc
:100d2800303798004137980010002000600f980075
:100d380010002000000f98008e0307000a04070027
:100d480080f92a00810a20004b0507003f010700af
:100d58006007980071079800a00220000e0040006c
:100d680081002000c8020700700f98008e089000cc
:100d7800610f98006e089000e30f50009200320057
:100d8800e30f500005003c00e10f5000080032005e
:100d9800e20f500083003200f1003700e40f5000ea
:100da800d3003200e50f5000d9003200ec003700c4
:100db800a116800000802000008060000000e00094
:100dc8000b003200200620000e00400081002000a9
:100dd800ad020700700f98001e0090000000e800a8
:100de800100798000051270001072000220507007e
:100df8003b0307000004e00047003200da62a90064
:100e08009e0890003e0890006a02070000179800ac
:100e18000000eb00200798000c003700be08900087
:100e28002e0090000080400010407800804078003c
:100e38005e0990002e0090000000410001487800f3
:100e48002e0090000000e80020079800ae009000f7
:100e58001e089000808f5000f0ff35002000200011
:100e6800000f98005e0890009040780010c4b3000e
:100e780080cf500025003a005e089000b0409000f6
:100e880040c4b30080cf500020003a005e089000b4
:100e980090409000b0c2b30080cf500005003a00e7
:100ea8003e089000204090000080fb00300798002a
:100eb8000d0037005e08900090409000d0c2b3004b
:100ec80080cf500006003a003e0890002040900075
:100ed8000080fb000000ea0030079800020037009d
:100ee80010002000000f98003e089000404090003d
:100ef8000080fb00400798003e089000504090009a
:100f08000080fb0050079800020037001000200006
:100f1800000f980022003700cc00070060079800f7
:100f280071079800de0090004e00900090000700c6
:100f38001017980021179800000020006121240054
:100f4800ef000700301798004117980018c0b30049
:100f58003e119000ce1190006e009000fe009000af
:100f68002cfe07000000e000010035000044eb0003
:100f78000804e000050032001e0078000000e000d0
:100f880002003200da62a800030037000000eb001c
:100f9800000f7800da62a90010002000000f980006
:100fa800720037001e0090000000e00003003400cb
:100fb80030002000000f98000200370010002000c9
:100fc800000f9800690037006703070080f92a00be
:100fd800810a2000a80407009c0007006007980009
:100fe80071079800de0090004e0090006000070036
:100ff80010179800211798001e109000ae1090004e
:10100800bf00070030179800411798000b00370001
:10101800da82a800d07d260011002000960407007f
:10102800da82a90040f72900510020009204070045
:1010380086000700600798007107980018c0b30081
:101048003e119000ce1190006e009000fe009000be
:10105800f2fd07000000e00001003c000044eb0046
:101068000804e000eaff3a0004003700da62a8004a
:1010780076000700600798007107980018c0b30051
:101088003e119000ce1190006e009000fe0090007e
:10109800e0fd07000000e000010035000044eb001f
:1010a8000804e000f1ff3a00da62a900d442a9007e
:1010b800e002a800d422a80040d42100c1012000e9
:1010c8006d040700d422a900d442a800e002a900b8
:1010d800d422a80080f92a00810a200066040700ab
:1010e800d422a90040002000000f98001f003700fc
:1010f8003e0090003303070080f92a00810a20008f
:101108005d04070050002000000f9800170037000a
:10111800da82a800707923004100200056040700f5
:10112800da82a90040d42100c1012000520407003e
:101138001e0090000000e900100798000a0307004d
:1011480080f92a00810a20004b04070010002000c3
:10115800000f780010002000000f980003003700ef
:1011680010002000600f980000000000fffe37000c
:101178000400fa00000f7800110798001e0078009c
:101188000000e00009003c001e009000e40f500041
:1011980003003c0000002000811c240029003700c7
:1011a80000002000011f2400260037001e007800e0
:1011b800e10f500009003c001e009000e40f5000b1
:1011c80003003c0000002000212024001d003700ff
:1011d80000002000c12024001a0037001e007800fb
:1011e800e20f500009003c001e009000e40f500080
:1011f80003003c000000200061212400110037009a
:1012080000002000012224000e0037001e00780094
:10121800e30f500009003c001e009000e40f50004e
:1012280003003c0000002000a12224000500370034
:1012380000002000412324000200370000002000a5
:10124800412324000080fa00000006000a00fa008a
:101258000000eb00000f78000000eb00100798007a
:101268000f0037004c03070050e620000100200063
:10127800010407004c030700000000006b0307008f
:101288000004a2000004e000fcff3a00630307002a
:101298001e0f40001e0090000000e8001007980094
:1012a8001e009000e90f5000eeff34009e00780009
:1012b800a000200000017800110009008280d800f9
:1012c800200798002e0090008000eb0055fd0700d5
:1012d800323323003305240092fd070002002c005e
:1012e800f347240009fd07003007980041079800dc
:1012f8003e009000ce0090000080fa00000006003a
:101308000800fa002007980031079800a21d2a005b
:10131800c30d24002e009000be00900081fd070040
:10132800a284280083aa23007efd0700a2702d0056
:1013380033d2230098fc070032332300f30924003a
:1013480078fd0700f2f7220093f1230092fc0700d2
:10135800008fbe001e00be000080fa0000000600dc
:101368000a00fa00a060250011c4240010079800a4
:101378002107980050552400d18325003007980094
:10138800410798000403070050e6200001002000f0
:10139800b903070004030700000000002303070047
:1013a8000004a2000004e000fcff3a001b03070051
:1013b800000f78001e00780000407800104f980059
:1013c8000e80e800810020002f01070080a823007c
:1013d80081032000a8030700eaff37000e00fa0087
:1013e80050002000100798001e0090008000e900bf
:1013f800210798000000e8000000e8000000d10084
:10140800800040000f007800818747000000e80056
:101418000000d10000004000300798000000eb00f9
:10142800000f7800050037003e0090001e004000c5
:101438008040eb00014878001e0fe8001e00900075
:101448009e007800808f5000f7ff35001e00900046
:101458008000e900410798000000e8000000e8006b
:101468000000d100800040000f007800818747000d
:101478000000e8000000d10000004000500798007c
:101488000100370000000000950107000004e0009b
:10149800fcff32009e0090003e009000c50007004f
:1014a800600798000000eb00000f78000800370084
:1014b8003e0090001e0040001040780080407800f8
:1014c8005e0090001e004000014878001e0fe800f2
:1014d8001e0090009e007800808f5000f4ff3500b9
:1014e800e9ff37000000fa002e020700ffff37006f
:1014f8000200fa000000eb00000f78009d010700d1
:101508000300370000000000010037000000000061
:10151800a116800000802000008060000000e0002c
:10152800070032001e0078000000e000f5ff3a00d6
:1015380010002000000f7800fc010700f4ff3700be
:101548001e007800e10f5000f0ff3a000000eb00a9
:10155800000f7800e7010700edff37000000fa00f0
:1015680080002000001188002222ef00a0a02100a6
:10157800401188009560a80021e2a8002342a80035
:10158800208320007041880020832000604188006b
:1015980080832000504188008083200040418800db
:1015a800804180000010a0008041880080418000b8
:1015b8000090a00080418800804180000080a10048
:1015c80080418800804180000000a100804188009f
:1015d8000028ef000080fa0000000600809fbe008f
:1015e8000000fa0081418000002020000080600097
:1015f8000000e000020032009580a9001f003700bb
:101608008580a900180037007041800010407800dc
:101618000080fb0020118800704180000000e80075
:10162800704188007141800080832000808f5000c5
:1016380002003a0020832000704188008041800029
:101648000080a100804188007141800060418000d5
:10165800808f500004003a00804180000090a00074
:10166800804188000500370011118000002020000b
:10167800008060000000e000e3ff32000080fa0014
:101688004f00be0000400600809fbe000000fa0028
:1016980018003700404180003111800081407800f7
:1016a80001487800404180000000e800404188007f
:1016b80041418000e0832000808f500002003a0002
:1016c8008083200040418800804180000010a100f4
:1016d800804188004141800050418000808f500047
:1016e80004003a00804180000000a000804188008a
:1016f8000400370010118000610060000000e00065
:10170800e4ff3a0010002000004088008560a9002e
:101718000080fa004f00be0000400600801f7800dd
:101728000000fa0010118000620060000000e00074
:10173800010032002222a9008c20a9000080fa00b2
:101748004f007800004006000200fa000040eb005d
:10175800004f780050418000104f780050418000c1
:101768000000e8005041880051418000e0832000db
:10177800808f500002003a0080832000504188008a
:101788005141800040418000808f500003003a00a2
:10179800804180000010a0008041880080418000c6
:1017a8000000a100804188001e4078000080fa00f7
:1017b800000006000600fa00881f7800100798004d
:1017c800210798000000eb00000f7800090037009f
:1017d80080418000620060000000e0000a003a00da
:1017e8001e0090001e044000d7ff0700004c780040
:1017f8001e0fe8002e0090009e007800808f500099
:10180800f3ff390001003700000000001e007800d7
:101818004f0478000080fa00000006000200fa0079
:10182800004f78009580a900604180001e4878002c
:10183800604180000000e80060418800614180004c
:1018480080832000808f500002003a00208320000f
:1018580060418800804180000090a100804188009c
:101868007141800060418000808f500003003a0081
:10187800804180000080a000804188009580a800f9
:101888000080fa00000006000600fa001007980021
:10189800210798000000eb00000f78000a003700cd
:1018a8008141800000102000008060000000e000fe
:1018b8000a003a001e0090001e0040001040780008
:1018c8001e0fe800d5ff07002e0090009e0078004c
:1018d800808f5000f2ff390001003700000000003f
:1018e8001e0078000080fa00000006000200fa00de
:1018f8000000eb00000f78008141800000102000fc
:10190800008060000000e000010032001e30a000ee
:101918008141800000202000008060000000e0007d
:10192800010032001e40a00080418000610060007c
:101938000000e000010032001e00a000804180008d
:10194800620060000000e000020032001e20a000db
:10195800010037001e10a0001e0078000080fa0069
:10196800000006000200fa00000f780050418000d5
:101978009e004000e0832000808f50000800360061
:10198800504180009e004000e08320000000ea00f3
:101998000080400081832000614078000300370008
:1019a800504180001e004000104078000080fa007e
:1019b800000006000000fa0080418000610060001d
:1019c8000000e0000f003a005141800040418000d3
:1019d800808f50000500360050418000800078005c
:1019e80040418000008050000700370050418000cf
:1019f8008000780040418000008050006600400070
:101a0800010037000000eb000080fa00000006002b
:101a18000000fa0081418000001020000080600072
:101a28000000e0000f003a00714180006041800032
:101a3800808f5000050036007041800080007800db
:101a4800604180000080500007003700704180002e
:101a580080007800604180000080500066004000ef
:101a6800010037000000eb000080fa0000000600cb
:101a78000000fa00804180000000d1006140600051
:101a88000080fb0000f0a7000000ea000000ea0068
:101a98004f00de00004078000080fa0000000600d9
:101aa8000000fa00804180004800de0061406000cc
:101ab8000080fb0000f0a7000000ea000000ea0038
:101ac8004f00de00004078000080fa0000000600a9
:101ad8000000fa00101180000080fa0000000600e3
:101ae8000000fa0080418000614060000080fb0037
:101af80000f0a7000000ea000000ea004f00de0046
:101b0800004078000080fa00000006000000fa009b
:101b1800f0022000000c8800f0022000100c880061
:101b2800e0002000200c8800200c80000040780095
:101b3800674060000080fb0020408800210c800086
:101b480080ff2f0000806000200c88000080fa00d1
:101b5800000006000000fa00200480006400600015
:101b68000000e000010032008440a9000080fa0073
:101b7800000006000000fa002040800000407800c5
:101b8800674060000080fb0067006000220c800056
:101b980081ff2f008100610001007000200c880087
:101ba8000080fa00000006000000fa00210c800006
:101bb80080ff2f0000806000200c88000080fa0061
:101bc800000006000200fa00000f78009e0078006e
:101bd800110c88000080fa00000006000400fa00da
:101be800000f7800110798009e007800110c8800fb
:101bf8009e009000010c88000080fa00000006009a
:101c08000400fa00000f7800110798009e00780081
:101c1800110c88009e009000010c88000080fa00da
:101c2800000006000400fa00000f78001107980071
:101c38009e007800110c88009e009000010c88001e
:101c48000080fa00000006000200fa00000f780089
:101c58009e007800010c88000080fa000000060051
:101c68000200fa00000f78009e007800110c88002e
:101c78000080fa00000006000000fa00200480003e
:101c88004200de00614060000080fb0000f0a70019
:101c98000000ea000000ea004f00de000040780083
:101ca8000080fa00000006000400fa0010079800ff
:101cb8001e0090000000e0000a003a00200c80009e
:101cc8004400de00614060000080fb0000f0a700d7
:101cd8000000ea000000ea004f00de00004f780034
:101ce80001003700000000001e4078000080fa0064
:101cf800000006000000fa0010012000000c880017
:101d080010012000100c88000080fa000000060076
:101d18000000fa00f0022000000c8800f002200009
:101d2800100c88000080fa00000006000000fa008d
:101d3800d0042000000c8800d0042000100c88007b
:101d48000080fa00000006000000fa00c00220002f
:101d5800000c8800c0022000100c880085ff0700d6
:101d68000080fa00000006000000fa0010042000bd
:101d7800000c880010042000100c88000080fa0075
:101d8800000006000000fa0010022000000c880085
:101d980010022000100c880076ff07000080fa006f
:101da800000006000000fa0070032000000c880004
:101db80070032000100c88006eff07000080fa00f6
:101dc800000006000200fa00000f7800c10220009f
:101dd8001e804000000c8800c10220001e804000c8
:101de800100c88000080fa00000006000000fa00cd
:101df8000a21ef001027200070088800000328003f
:101e080090088800e08320008040eb0001487800bb
:101e18000080fa00000006000000fa00210480009b
:101e280000102000008060000000e000090032007f
:101e3800f0832000104078008040e800f083200004
:101e480001487800e083200011c0b3000148780001
:101e58008500a9000080fa00000006000200fa00d0
:101e6800000f78009e00780071088800e083200049
:101e78008040eb00014878000080fa00000006006e
:101e88000000fa00700880000080fa0000000600d8
:101e98000200fa00000f78009e00780051088800c0
:101ea800e08320008040eb00014878000080fa00c1
:101eb800000006000000fa00500880000080fa00c8
:101ec800000006000000fa00e08320008040eb00dc
:101ed8000148780013e1a8000080fa00000006001d
:101ee8000000fa0013e1a9000080fa0000000600d3
:101ef8000200fa00e0832000104f78001e407800ae
:101f08000004e00003003200e08320008040eb0082
:101f1800014878001e4078000080fa0000000600a2
:101f28000000fa00f0832000104078000080fb00d9
:101f38000080fa00000006000000fa00f08320008c
:101f48008040eb00014878000080fa00000006009d
:101f58000000fa0000002800001988000040200056
:101f6800101988002423ef00202020004019880041
:101f78004000200080198800101980004200de000f
:101f88006f40600006e8b70020002000330007001b
:101f98000080fa00000006000000fa002023a800d4
:101fa8000080fa00000006000000fa002023a900c3
:101fb8000080fa00000006000600fa0020079800da
:101fc80000302000100798000000eb00000f780098
:101fd8000b0037001e00780000004000ae009000a3
:101fe800008040009e009000910078000108780071
:101ff8001e0090000080e800100798001e0fe800ff
:1020080006c8bf000080fb009e0f5000f1ff3d0096
:102018001e0078000080fa00000006000000fa00a8
:10202800001880000080fa00000006000000fa0096
:102038000019800000407800614060000080fb00cb
:1020480000f0a7000000ea000000ea004f00de00f0
:10205800004078000080fa00000006000200fa0044
:10206800000f78009e007800411988000080fa006f
:10207800000006000000fa0085a0a9000080fa0010
:10208800000006000000fa00ca22ef00d022ef008c
:10209800d622ef00dc22ef00800020001017880015
:1020a800e822ef000080eb0030168800e0012f00e6
:1020b8006016880080ff200090168800f00f20002e
:1020c800c016880060032000f0168800f03c2f003e
:1020d800201788006820ef006a20ef00c626ef006e
:1020e800cc26ef00d226ef00d826ef00de26ef0040
:1020f800e426ef0030002000601988000080fa0014
:1021080000000600000f78009e007800114088004b
:10211800ffff37000000fa00808020008007780069
:1021280000822000000188000080fa0000000600fc
:102138003600f8008020a9000000eb00f1ff07003e
:102148003600f800f3ff07008040a90010002000c7
:10215800ecff07003600f8008060a900200020008e
:10216800e8ff07003600f8008080a9003000200052
:10217800e4ff07000000fa00c2ff0700070007009d
:102188002b000700f5fc070071ff070017ff070089
:102198005efe07000080fa00000006000000fa005a
:1021a8000001eb006004200071052000237420006a
:1021b800804978008149780082497800001023001e
:1021c800203a88004827ef004027ef000080fa00f7
:0421d80000000600fd
:020000040000fa
:1021dc0028080000160000000000000000080000a5
:1021ec0002000000000000000808000020000000b1
:1021fc0000000000020800000200000002000000c5
:10220c00ffff00003e08000002000000000000007c
:10221c000408000002000000000000000608000096
:0c222c00020000000000000000000000a4
:020000040000fa
:102238000000fa0021068000f0f82f0000806000fe
:102248000040a000200688005105800080ff2f0074
:10225800008060000000a000500588004105800053
:10226800f0ff28000080600000c0a0004005880042
:082278000080fa0000000600de
:020000040000fa
:10228000f03fb1000180b10006003500ee03090007
:1022900000000000403fb1000180b100fbff3d00a5
:1022a0001000b000203fb00002003500008009009f
:0822b000000000000000060020
:020000040000fa
:020000040002f8
:04aff800bff900009d
:020000040000fa
:020000040002f8
:04affc007f3e000094
:00000001FF
